:0300000002054CAA
:0C054C00787FE4F6D8FD75811F0204DD05
:1004FC00D3EF9400EE940040147D727C00ED1D70DF
:0D050C00011CED4C70F7EF1F70E61E80E340
:0105190022BF
:10030F008F0F758901AF0F7E007C037D991200F965
:10031F00E4C39FFFE49EFE74019400FDE49400FC8F
:10032F00E4FB7A01F9F81204058F8CAF0F7E007C85
:10033F00037D991200F9E4C39FFFE49EFE740194BC
:10034F0000FDE49400FCE4FB7A01F9F8120405AF18
:0A035F00038F8AC28DC2A9D28C223E
:03055800C28C2230
:040449008E0B8F0C7B
:10044D00D3E50C9400E50B9400402EE4F50DF50E6C
:10045D00AE0BAF0C7C007D3212010BC3E50E9FE598
:10046D000D9E50157F3212030F308DFD120558056C
:09047D000EE50E70DB050D80D7C1
:010486002253
:10053800EFD3940074809480400912030F308DFD2E
:04054800120558221E
:04048700AB07AA060F
:10048B007C007D3212010B8E088F09AE02AF037C0C
:10049B00007D3212010B8D0AAE08AF097C007D3254
:0B04AB001200F9120449AF0A020538E4
:10051A003F065B4F666D7D077F6F777C395E797129
:0E052A007638373E4000000000000000000060
:080369008F1D8E1C8D1B8C1AE8
:10037100E4F51EF51FE4FFFEFDFCAB1DAA1CA91B45
:10038100A81AC312027D6023AF1DAE1CAD1BAC1AAF
:10039100E47B0AFAF9F81201EB8F1D8E1C8D1B8C80
:1003A1001A051FE51F70CE051E80CAD3E51F9408EC
:0E03B100E51E94004004E4FEFF22AE1EAF1FC6
:0103BF00221B
:1004B6007580FFD2A7A8077401088002C333D8FC51
:1004C600F45280C2A7D2A6ED90051A93F580C2A673
:0704D6007F057E000204FC1B
:0803C0008E1A8F1B8D828C83C5
:1003C800E4751F01F51EF51DF51CE58245836024C3
:1003D800AB1FAA1EA91DA81CAE1AAF1BE4FCFD1278
:1003E80001608F1F8E1E8D1D8C1CE582158270DAB0
:0C03F800158380D6AF1FAE1EAD1DAC1CDF
:0104040022D5
:08028E008F0B8E0A8D098C080C
:100296001203698F0D78127C007D007BFF7A057949
:1002A600307E007F081200D3E4F50CE50CC3950DF3
:1002B6005056E50D24FFFFE434FFFEC3EF950CFD19
:1002C600EE9400FC7F0A7E001203C08F118E108D03
:1002D6000F8C0EAB11AA10A90FA80EAF0BAE0AAD6C
:1002E60009AC081201EBE47B0AFAF9F81201EBAF4C
:1002F600037412250CF8A6077412250CF8E6FDAF58
:080306000C1204B6050C80A3E3
:01030E0022CC
:1004DD00C2937FF47E01120487D2937FF47E0112C2
:0F04ED0004877F7B7E007D007C0012028E80E101
:10000300E709F608DFFA8046E709F208DFFA803EDF
:1000130088828C83E709F0A3DFFA8032E309F608CC
:10002300DFFA8078E309F208DFFA807088828C8334
:10003300E309F0A3DFFA806489828A83E0A3F608E8
:10004300DFFA805889828A83E0A3F208DFFA804CC2
:1000530080D280FA80C680D4806980F28033801099
:1000630080A680EA809A80A880DA80E280CA803302
:1000730089828A83ECFAE493A3C8C582C8CCC5837A
:10008300CCF0A3C8C582C8CCC583CCDFE9DEE7804A
:100093000D89828A83E493A3F608DFF9ECFAA9F0C9
:1000A300EDFB2289828A83ECFAE0A3C8C582C8CC1F
:1000B300C583CCF0A3C8C582C8CCC583CCDFEADE38
:1000C300E880DB89828A83E493A3F208DFF980CC9A
:1000D30088F0EF60010E4E60C388F0ED2402B40493
:1000E3000050B9F582EB2402B4040050AF2323453A
:0600F3008223900053730C
:1000F900EF8DF0A4A8F0CF8CF0A428CE8DF0A42E1B
:02010900FE22D4
:10010B00BC000BBE0029EF8DF084FFADF022E4CCD8
:10011B00F875F008EF2FFFEE33FEEC33FCEE9DECA1
:10012B00984005FCEE9DFE0FD5F0E9E4CEFD22EDE7
:10013B00F8F5F0EE8420D21CFEADF075F008EF2F31
:10014B00FFED33FD4007985006D5F0F222C398FD22
:05015B000FD5F0EA22BF
:10016000E88FF0A4CC8BF0A42CFCE98EF0A42CFC3E
:100170008AF0EDA42CFCEA8EF0A4CDA8F08BF0A4BC
:100180002DCC3825F0FDE98FF0A42CCD35F0FCEB1B
:100190008EF0A4FEA9F0EB8FF0A4CFC5F02ECD39E0
:0F01A000FEE43CFCEAA42DCE35F0FDE43CFC224D
:1001AF0075F008758200EF2FFFEE33FECD33CDCC07
:1001BF0033CCC58233C5829BED9AEC99E58298408A
:1001CF000CF582EE9BFEED9AFDEC99FC0FD5F0D667
:1001DF00E4CEFBE4CDFAE4CCF9A88222B800C1B991
:1001EF000059BA002DEC8BF084CFCECDFCE5F0CBCF
:1001FF00F97818EF2FFFEE33FEED33FDEC33FCEB08
:10020F0033FB10D703994004EB99FB0FD8E5E4F9C2
:10021F00FA227818EF2FFFEE33FEED33FDEC33FCAF
:10022F00C933C910D7059BE99A4007EC9BFCE99AA3
:10023F00F90FD8E0E4C9FAE4CCFB2275F010EF2FE8
:10024F00FFEE33FEED33FDCC33CCC833C810D707E8
:10025F009BEC9AE899400AED9BFDEC9AFCE899F823
:0E026F000FD5F0DAE4CDFBE4CCFAE4C8F922B6
:10040500C2D5E830E70FB2D5E4C39BFBE49AFAE422
:1004150099F9E498F8EC30E717B2D512043B1201CC
:10042500EBE4C39BFBE49AFAE499F9E498F88003BA
:100435001201EB30D50DE4C39FFFE49EFEE49DFD64
:04044500E49CFC2215
:10027D00EB9FF5F0EA9E42F0E99D42F0E89C45F0D7
:01028D00224E
:00000001FF
