:030000000205579F
:0C055700787FE4F6D8FD75811F0204E8EF
:10050700D3EF9400EE940040147D727C00ED1D70D3
:0D051700011CED4C70F7EF1F70E61E80E335
:0105240022B4
:100371008F0F758901AF0F7E007C037D991200F903
:10038100E4C39FFFE49EFE74019400FDE49400FC2D
:10039100E4FB7A01F9F81204108F8CAF0F7E007C18
:1003A100037D991200F9E4C39FFFE49EFE7401945A
:1003B10000FDE49400FCE4FB7A01F9F8120410AFAB
:0A03C100038F8AC28DC2A9D28C22DC
:03056300C28C2225
:040454008E0B8F0C70
:10045800D3E50C9400E50B9400402EE4F50DF50E61
:10046800AE0BAF0C7C007D3212010BC3E50E9FE58D
:100478000D9E50157F32120371308DFD12056305F4
:090488000EE50E70DB050D80D7B6
:010491002248
:10054300EFD39400748094804009120371308DFDC1
:040553001205632208
:04049200AB07AA0604
:100496007C007D3212010B8E088F09AE02AF037C01
:1004A600007D3212010B8D0AAE08AF097C007D3249
:0B04B6001200F9120454AF0A020543C3
:100525003F065B4F666D7D077F6F777C395E79711E
:0E0535007638373E4000000000000000000055
:08030F008F1D8E1C8D1B8C1A42
:10031700E4F51EF51FE4FFFEFDFCAB1DAA1CA91B9F
:10032700A81AC312027D6023AF1DAE1CAD1BAC1A09
:10033700E47B0AFAF9F81201EB8F1D8E1C8D1B8CDA
:100347001A051FE51F70CE051E80CAD3E51F940846
:10035700E51E94004004E4FEFF22D3E51F9408E560
:090367001E94005004AE1EAF1FED
:01037000226A
:1004C1007580FFD2A7A8077401088002C333D8FC46
:1004D100F45280C2A7D2A6ED90052593F580C2A65D
:0704E1007F057E0002050704
:0803CB008E1A8F1B8D828C83BA
:1003D300E4751F01F51EF51DF51CE58245836024B8
:1003E300AB1FAA1EA91DA81CAE1AAF1BE4FCFD126D
:1003F30001608F1F8E1E8D1D8C1CE582158270DAA5
:0C040300158380D6AF1FAE1EAD1DAC1CD3
:01040F0022CA
:08028E008F0B8E0A8D098C080C
:1002960012030F8F0D78127C007D007BFF7A0579A3
:1002A6003B7E007F081200D3E4F50CE50CC3950DE8
:1002B6005056E50D24FFFFE434FFFEC3EF950CFD19
:1002C600EE9400FC7F0A7E001203CB8F118E108DF8
:1002D6000F8C0EAB11AA10A90FA80EAF0BAE0AAD6C
:1002E60009AC081201EBE47B0AFAF9F81201EBAF4C
:1002F600037412250CF8A6077412250CF8E6FDAF58
:080306000C1204C1050C80A3D8
:01030E0022CC
:1004E800C2937FF47E01120492D2937FF47E0112AC
:0F04F80004927F7B7E007D007C0012028E80E1EB
:10000300E709F608DFFA8046E709F208DFFA803EDF
:1000130088828C83E709F0A3DFFA8032E309F608CC
:10002300DFFA8078E309F208DFFA807088828C8334
:10003300E309F0A3DFFA806489828A83E0A3F608E8
:10004300DFFA805889828A83E0A3F208DFFA804CC2
:1000530080D280FA80C680D4806980F28033801099
:1000630080A680EA809A80A880DA80E280CA803302
:1000730089828A83ECFAE493A3C8C582C8CCC5837A
:10008300CCF0A3C8C582C8CCC583CCDFE9DEE7804A
:100093000D89828A83E493A3F608DFF9ECFAA9F0C9
:1000A300EDFB2289828A83ECFAE0A3C8C582C8CC1F
:1000B300C583CCF0A3C8C582C8CCC583CCDFEADE38
:1000C300E880DB89828A83E493A3F208DFF980CC9A
:1000D30088F0EF60010E4E60C388F0ED2402B40493
:1000E3000050B9F582EB2402B4040050AF2323453A
:0600F3008223900053730C
:1000F900EF8DF0A4A8F0CF8CF0A428CE8DF0A42E1B
:02010900FE22D4
:10010B00BC000BBE0029EF8DF084FFADF022E4CCD8
:10011B00F875F008EF2FFFEE33FEEC33FCEE9DECA1
:10012B00984005FCEE9DFE0FD5F0E9E4CEFD22EDE7
:10013B00F8F5F0EE8420D21CFEADF075F008EF2F31
:10014B00FFED33FD4007985006D5F0F222C398FD22
:05015B000FD5F0EA22BF
:10016000E88FF0A4CC8BF0A42CFCE98EF0A42CFC3E
:100170008AF0EDA42CFCEA8EF0A4CDA8F08BF0A4BC
:100180002DCC3825F0FDE98FF0A42CCD35F0FCEB1B
:100190008EF0A4FEA9F0EB8FF0A4CFC5F02ECD39E0
:0F01A000FEE43CFCEAA42DCE35F0FDE43CFC224D
:1001AF0075F008758200EF2FFFEE33FECD33CDCC07
:1001BF0033CCC58233C5829BED9AEC99E58298408A
:1001CF000CF582EE9BFEED9AFDEC99FC0FD5F0D667
:1001DF00E4CEFBE4CDFAE4CCF9A88222B800C1B991
:1001EF000059BA002DEC8BF084CFCECDFCE5F0CBCF
:1001FF00F97818EF2FFFEE33FEED33FDEC33FCEB08
:10020F0033FB10D703994004EB99FB0FD8E5E4F9C2
:10021F00FA227818EF2FFFEE33FEED33FDEC33FCAF
:10022F00C933C910D7059BE99A4007EC9BFCE99AA3
:10023F00F90FD8E0E4C9FAE4CCFB2275F010EF2FE8
:10024F00FFEE33FEED33FDCC33CCC833C810D707E8
:10025F009BEC9AE899400AED9BFDEC9AFCE899F823
:0E026F000FD5F0DAE4CDFBE4CCFAE4C8F922B6
:10041000C2D5E830E70FB2D5E4C39BFBE49AFAE417
:1004200099F9E498F8EC30E717B2D51204461201B6
:10043000EBE4C39BFBE49AFAE499F9E498F88003AF
:100440001201EB30D50DE4C39FFFE49EFEE49DFD59
:04045000E49CFC220A
:10027D00EB9FF5F0EA9E42F0E99D42F0E89C45F0D7
:01028D00224E
:00000001FF
